:100000000C9464000C948C000C948C000C942804C8
:100010000C9428040C9428040C948C000C948C00F0
:100020000C948C000C94FA100C948C000C948C00A2
:100030000C948C000C948C000C948C000C948C0010
:100040000C9424110C948C000C9435140C946714AB
:100050000C948C000C948C000C948C000C948C00F0
:100060000C948C000C948C0000000008000201002D
:100070000003040700000000000000000102040863
:100080001020408001020408102001020408102002
:10009000040404040404040402020202020203032E
:1000A00003030303000000002300260029000000D2
:1000B0000000250028002B0000000000240027007D
:1000C0002A00260397143D0311241FBECFEFD8E06A
:1000D000DEBFCDBF14E0A0E0B1E0E8E7F7E302C087
:1000E00005900D92AC37B107D9F726E0ACE7B4E044
:1000F00001C01D92A037B207E1F710E0C6ECD0E0D6
:1001000004C02297FE010E941219C23CD107C9F710
:100110000E94DB140C94AF1B0C9400008DE00E9435
:10012000C712019711F460E001C061E08DE00C940A
:10013000911289E00E94C712019711F460E001C09A
:1001400061E089E00C949112CF93DF9300D000D04E
:1001500000D0CDB7DEB70E948E0010928604809149
:100160008604863030F5809186040E9412129093A6
:10017000840480938304E0918604809183049091A9
:100180008404F0E0EE0FFF1FE557FB4F9083E091F2
:1001900086048091830490918404F0E0EE0FFF1FA9
:1001A000E557FB4F8183809186048F5F809386049F
:1001B000D6CF6DE175E0CE0101960E94ED0CBE0137
:1001C0006F5F7F4F8DE794E00E94BB16CE010196D2
:1001D0000E94E1156AE38DE794E00E944D17BC018F
:1001E0006F5F7F4F8DE794E00E942F17833331F4C8
:1001F0006AE271E08FEC95E00E94361580918A04E6
:100200008F5F80938A04809185048F5F809385043B
:10021000809185048C3021F4109285040E9499000D
:1002200026960FB6F894DEBF0FBECDBFDF91CF91FB
:1002300008951F93CF93DF93CDB7DEB72C970FB6FA
:10024000F894DEBF0FBECDBF40ED57E060E070E038
:1002500082E895E00E94950F20E835E240E050E00A
:100260006FEC75E082E895E00E94A80F82E895E0C7
:100270000E94920F67E071E08091B3059091B40500
:100280000E9436156AE070E080E090E00E949D11C7
:1002900041E060E082E895E00E94131061E08DE0AB
:1002A0000E94581260E08DE00E94911261E089E0A6
:1002B0000E94581285EA809387048AE58093880417
:1002C00082E08093890410928A0480938B041092B8
:1002D0008C0480938D0410928E0480938F0410926E
:1002E000900480939104109292048093930410924E
:1002F0009404809395041092960481E0809397046F
:1003000026E040E855E260E070E08FEC95E00E9466
:10031000D31369E171E08FEC95E00E9443156CE224
:1003200071E08FEC95E00E9436156DE175E0CE012D
:1003300001960E94560A69817A818FEC95E00E94AD
:100340004315CE0101960E94E1158DE195E00E94D2
:10035000830B882319F069E471E002C06AE571E05B
:100360008FEC95E00E94431566E771E0CE0101969F
:100370000E944F1667E871E0CE0107960E944F1663
:10038000AE014F5F5F4FBE01695F7F4F8DE195E02A
:100390000E94420C182FCE0107960E94E115CE0153
:1003A00001960E94E1151123E9F062E971E08FECFA
:1003B00095E00E94431569EA71E08FEC95E00E9498
:1003C00043156DE175E0CE0101960E94080E69812A
:1003D0007A818FEC95E00E944315CE0101960E9430
:1003E000E11506C06EEA71E08FEC95E00E944315BE
:1003F0008DE195E00E94A00E882319F063EC71E076
:1004000002C063ED71E08FEC95E00E9443154AE96C
:100410005FE160E070E08DE195E00E94650F882368
:1004200019F061EF71E002C060E172E08FEC95E0DD
:100430000E94431544EA50E064E070E080E090E000
:100440000E948D100E9499106AE272E08FEC95E094
:100450000E9436156DE175E0CE0101960E94ED0C0B
:1004600069817A818FEC95E00E943615CE01019664
:100470000E94E11563E372E08FEC95E00E94431562
:1004800065E372E08FEC95E00E9443152C960FB661
:10049000F894DEBF0FBECDBFDF91CF911F910895BD
:1004A000CF92DF92EF92FF920F931F93CF93DF9340
:1004B00000D000D000D0CDB7DEB780917C04811190
:1004C00028C06DE175E0CE0101960E94ED0CBE01E1
:1004D0006F5F7F4F8DE794E00E94BB16CE010196BF
:1004E0000E94E1156AE38DE794E00E944D17BC017C
:1004F0006F5F7F4F8DE794E00E942F17833349F49D
:1005000067E472E08FEC95E00E94431581E08093F0
:100510007C0424E6C22ED12CE12CF12C00E810E062
:1005200020E030E04DE954E06CE974E08DE195E0C5
:100530000E947207609398047093990480939A04C0
:1005400090939B04672B682B692B09F470C06AE2B7
:1005500072E08FEC95E00E9436156DE175E0CE01FA
:1005600001960E94ED0C69817A818FEC95E00E94E2
:100570003615CE0101960E94E11563E372E08FEC1F
:1005800095E00E94431561E572E08FEC95E00E94D2
:1005900036154AE050E060919C048FEC95E00E9493
:1005A000B11561E372E08FEC95E00E9436150DE91C
:1005B00014E0C12CD12C760180919804909199047B
:1005C000A0919A04B0919B04C816D906EA06FB06CE
:1005D00068F4F80161918F018FEC95E00E94381565
:1005E000FFEFCF1ADF0AEF0AFF0AE6CF6FE572E0EE
:1005F0008FEC95E00E9436150091980410919904B3
:1006000020919A0430919B044DE954E060919C0440
:100610008DE195E00E94A10D882319F063E672E058
:1006200002C069E772E08FEC95E00E9436152696CD
:100630000FB6F894DEBF0FBECDBFDF91CF911F91F3
:100640000F91FF90EF90DF90CF90089520E043E06E
:1006500062E08FE195E00E94FB0420E03BE440E093
:1006600050E06FE175E08DE195E00E94D50564EC06
:1006700072E08DE794E00C944F168DE794E00E94B1
:10068000E1158FE195E00C94A20420918005309152
:10069000810528173907B9F490913E0580913F05EF
:1006A000981789F0E0913E05F0E0E05CFA4F808118
:1006B00020913E0530E02F5F3F4F2F73332720936B
:1006C0003E0590E008958FEF9FEF08951F93CF931D
:1006D000DF93DC015C968D919C915D97009749F4C6
:1006E00081E090E013969C938E93129780E090E0C7
:1006F0003BC05196ED91FC91529750962C9150979A
:10070000322F30951FB75E964C915E9741FB77274D
:1007100070F941FD6095F8944081772311F0422BE8
:1007200001C043234083EC012197F1F748E0508159
:1007300060FF02C0522B01C053235083EC0121976C
:10074000F1F76695415099F78081772311F0832363
:1007500001C0822B80831FBF5C968D919C915D9719
:100760000197F1F781E090E0DF91CF911F9108951B
:10077000089520918005309181052817390771F47B
:1007800090913E0580913F05981741F0E0913E051C
:10079000F0E0E05CFA4F808190E008958FEF9FEFEA
:1007A000089520918005309181052817390771F44B
:1007B00080913F0520913E0590E0805C9F4F821B19
:1007C000910960E470E00E94A718089580E090E02D
:1007D0000895E0918005F0918105E817F90769F423
:1007E000A389B4899C918589809589238C931092E3
:1007F00081051092800581E0089580E00895CF93EF
:10080000DF93EC018A8D9B8D892BF1F0809180051F
:10081000909181058C179D07B9F0009711F00E9407
:10082000E9038E8D8E7F8E8F10923F0510923E05CC
:10083000D0938105C0938005EB89FC8980819D89D7
:10084000892B808381E001C080E0DF91CF91089502
:100850001F920F920FB60F9211242F933F934F9335
:100860005F936F937F938F939F93AF93BF93EF9318
:10087000FF93E0918005F0918105309709F451C014
:10088000868DA685B785958581FF04C08C918923C7
:1008900029F447C08C91892309F043C0A389B48906
:1008A0009C918589809589238C9386899789019766
:1008B000F1F7208D318DA685B785758558E040E02C
:1008C000C9010197F1F7842F90E095958795482FFE
:1008D0006C91672309F04068515091F7868D81FD36
:1008E000409580913F0590E001968F739927209164
:1008F0003E05281749F0A0913F05B0E0A05CBA4F33
:100900004C9380933F0503C0868D8160868F828DD6
:10091000938D0197F1F7A389B4898C919589892BDF
:100920008C93FF91EF91BF91AF919F918F917F91A8
:100930006F915F914F913F912F910F900FBE0F904C
:100940001F90189527E932E0FC01318320830C9435
:10095000E9031F93CF93DF93EC01162F6E8D6695FD
:10096000617081E06827812F0E94911261E0812FE0
:100970000E945812812F90E0FC01E458FF4FE4914F
:10098000E88BFC01E057FF4FE491F0E0EE0FFF1F12
:10099000E255FF4F859194919A8B898BDF91CF918E
:1009A0001F9108951F93CF93DF93EC01162F60E002
:1009B000812F0E9458128E8D81FD04C061E0812F2D
:1009C0000E9491121C87812F90E0FC01E458FF4F98
:1009D000E491ED87FC01E057FF4FE491F0E0EE0F6A
:1009E000FF1FEC55FF4F859194919F878E87DF9174
:1009F000CF911F910895FF920F931F93CF93DF9391
:100A0000EC01F62E522F1B821A8208EE13E020E032
:100A100030E00C831D832E833F8387E992E0998326
:100A200088831F8A1E8A198E188E1B8E1A8E1D8E21
:100A30001C8E8E8D8E7F50FB81F98E8F642FCE01A0
:100A40000E94A9046F2DCE01DF91CF911F910F91CC
:100A5000FF900C94D204CF93DF93EC019A01AB0189
:100A60001B8E1A8E198E188E1F8A1E8A60E079E0FE
:100A70008DE390E00E94DD18C9012430310520F09B
:100A8000B9016350710902C061E070E07D8F6C8F25
:100A9000EC85E63108F068C0B90176956795643158
:100AA000710518F06351710902C061E070E07F8B3D
:100AB0006E8B069718F0C901059702C081E090E09F
:100AC000998F888FC901880F991F820F931F969560
:100AD0008795969587958D30910510F00C9702C0FB
:100AE00081E090E09B8F8A8F20916800E83050F081
:100AF00091E0EE3008F490E081E001C0880F9A9513
:100B0000EAF701C084E0822B809368002C852830AE
:100B100038F02E3040F0263148F48CE690E008C0E2
:100B20008DE690E005C08BE690E002C080E090E0AA
:100B30009C8B8B8B283030F481E001C0880F2A9584
:100B4000EAF70DC0822F90E02E3010F4089701C014
:100B50000E9791E001C0990F8A95EAF7892F8D8B46
:100B60008C8D9D8D0197F1F7CE01DF91CF910C9483
:100B7000FF03CF93DF93EC0188819981DC01ED9134
:100B8000FC910480F581E02D09951816190654F49E
:100B900088819981DC01ED91FC910680F781E02D3F
:100BA0000995EACFDF91CF910895CF93DF93EC01C0
:100BB000CB01BA01A901998388830E942B05CE013C
:100BC000DF91CF910C94B9052F923F924F925F9293
:100BD0006F927F928F929F92AF92BF92CF92DF924D
:100BE000EF92FF920F931F93CF93DF93CDB7DEB7B2
:100BF000A0970FB6F894DEBF0FBECDBF9E878D873E
:100C0000798F688F2C8B3D8B4E8B5F8B1B8F0A8F60
:100C1000BD8EAC8E8E01095F1F4F64EC72E0C8017F
:100C20000E944F16288D398D232B29F460E070E047
:100C300000E010E035C10E946E116F87788B898BC0
:100C40009A8B0B8B1E8F0E946E112F8538894989D4
:100C50005A89621B730B840B950B6C157D058E05F1
:100C60009F0520F7AD85BE858D919C91DC01ED91AE
:100C7000FC910480F581E02D09951816190684F47D
:100C8000ED85FE8580819181DC01ED91FC910680EE
:100C9000F781E02D0995682F8B899E8D0E940B1797
:100CA00063EA72E0CE0101960E944F16BE016F5FAB
:100CB0007F4FC8010E946D175C01CE0101960E9412
:100CC000E115BFEFAB16BB0609F4BDCF3501E5E07A
:100CD0006E0E711CA3016AE3C8010E9431171C014A
:100CE0004C01AA2497FCA094BA2CFFEF8F169F0604
:100CF000AF06BF0609F4A7CFA3016CE2C8010E94AA
:100D000031177C019C01442737FD4095542F2F87D4
:100D1000388B498B5A8B2F3F8FEF3807480758077E
:100D200091F1281539054A055B056CF59701A3017A
:100D3000B801CE0101960E947117CE0101960E9462
:100D4000B6176B8BCE0101960E94E1159B899530F9
:100D500008F06CCFA7014F5F5F4F9101B801CE0142
:100D600001960E947117CE0101960E94B6172B01C1
:100D70003C01CE0101960E94E115141415041604DD
:100D80001704E4F053CF9101A301BE01695F7F4FC7
:100D9000CE0101960E947117CE0101960E94B617EE
:100DA0002B013C01CE0101960E94E115141415049B
:100DB000160417040CF03ACFAFEFAB8B730162014E
:100DC0008C899D89AE89BF8984159505A605B705CF
:100DD00010F46C017D010E946E116C8B7D8B8E8BEB
:100DE0009F8B812C912C54010E946E112C893D897E
:100DF0004E895F89621B730B840B950B683B7B40AC
:100E00008105910508F012CFAD85BE858D919C912D
:100E1000DC01ED91FC910480F581E02D0995181617
:100E200019062CF48C149D04AE04BF0418F18C1424
:100E30009D04AE04BF04C1F68D859E850E94B90550
:100E4000EA8DFB8D309721F040825182628273825D
:100E50002F85388949895A892F3F3F4F4F4F5F4F20
:100E600031F0AC8DBD8D109711F0EB89EC93B6018C
:100E7000870116C0AD85BE858D919C91DC01ED91F9
:100E8000FC910680F781E02D0995E88DF98DE80D3C
:100E9000F91D8083BFEF8B1A9B0AAB0ABB0AB4CF44
:100EA000CE0107966F8F78A30E94E1156F8D78A110
:100EB000C801A0960FB6F894DEBF0FBECDBFDF917C
:100EC000CF911F910F91FF90EF90DF90CF90BF9047
:100ED000AF909F908F907F906F905F904F903F90DA
:100EE0002F900895AF92BF92CF92DF92EF92FF9230
:100EF0000F931F935B01BA01A901980100E010E074
:100F00000E94E4051F910F91FF90EF90DF90CF902A
:100F1000BF90AF9008954F925F926F927F928F92A1
:100F20009F92AF92BF92CF92DF92EF92FF920F9378
:100F30001F93CF93DF93EC015B014A0168017901B4
:100F400064EC72E00E944F160E946E112B013C016E
:100F50000E946E1164197509860997096C157D0543
:100F60008E059F0520F5F50180819181DC01ED91D1
:100F7000FC910480F581E02D0995181619068CF472
:100F8000D5018D919C91DC01ED91FC910680F7815A
:100F9000E02D0995882339F3682FCE010E940B17A5
:100FA000E2CFB401CE010E946D17019689F2CE0105
:100FB000DF91CF911F910F91FF90EF90DF90CF9035
:100FC000BF90AF909F908F907F906F905F904F9069
:100FD00008952F923F924F925F926F927F928F92DD
:100FE0009F92AF92BF92CF92DF92EF92FF920F93B8
:100FF0001F93CF93DF93EC011B014A015901270195
:10100000380164EC72E00E944F160E946E116B0171
:101010007C010E946E116C197D098E099F0964156F
:1010200075058605970550F5F10180819181DC01F8
:10103000ED91FC910480F581E02D099518161906B3
:101040008CF4D1018D919C91DC01ED91FC91068095
:10105000F781E02D0995882339F3682FCE010E948E
:101060000B17E2CFB401CE010E946D17019631F447
:10107000B501CE010E946D17019659F2CE01DF91A4
:10108000CF911F910F91FF90EF90DF90CF90BF9085
:10109000AF909F908F907F906F905F904F903F9018
:1010A0002F900895CF92DF92EF92FF920F931F93AC
:1010B000CF93DF93CDB7DEB766970FB6F894DEBF58
:1010C0000FBECDBF6C017B0164EC72E0CE010D96CA
:1010D0002B8B3C8B4D8B5E8B0E944F16B701CE0144
:1010E00007960E94B2162B893C894D895E89890139
:1010F0009A01AE01495F5F4FB601CE0101960E9491
:101100008B07BE016F5F7F4FCE010D960E94BB160D
:10111000CE0101960E94E115CE0107960E94E115CD
:10112000B701CE010D960E946D177C01CE010D9680
:101130000E94E11581E0EF20E09409F480E06696DA
:101140000FB6F894DEBF0FBECDBFDF91CF911F91D8
:101150000F91FF90EF90DF90CF9008952F923F92E4
:101160004F925F926F927F928F929F92AF92BF92B7
:10117000CF92DF92EF92FF920F931F93CF93DF9363
:10118000CDB7DEB762970FB6F894DEBF0FBECDBF06
:101190002C013B014A011901580164EC72E0CE01B7
:1011A0000D960E944F16B301CE0107960E94B2160B
:1011B00097018601AE01495F5F4FB201CE010196F2
:1011C0000E948B07BE016F5F7F4FCE010D960E947C
:1011D000BB16CE0101960E94E115CE0107960E9432
:1011E000E115B301CE010D960E946D170196B1F184
:1011F000B401CE010D960E946D172C01662457FC98
:101200006094762CB101CE010D960E946D17EFEF20
:101210004E165E066E067E0609F18F3FFFEF9F07B2
:10122000E9F0F40124813581B301A201420F531F7B
:10123000611D711D9C01BE01635F7F4FCE01019650
:101240000E947117BE016F5F7F4FC5010E94BB16E0
:10125000CE0101960E94E11511E006C064EC72E037
:10126000C5010E94C71610E0CE010D960E94E1153F
:10127000812F62960FB6F894DEBF0FBECDBFDF910F
:10128000CF911F910F91FF90EF90DF90CF90BF9083
:10129000AF909F908F907F906F905F904F903F9016
:1012A0002F9008950F931F93CF93DF9300D000D01A
:1012B00000D0CDB7DEB78C010E94B90569EA72E0B3
:1012C000F801808191810E9443156EEB72E0CE019E
:1012D00001960E944F1628EE33E040E050E0BE0138
:1012E0006F5F7F4FC8010E945208182FCE010196F0
:1012F0000E94E115812F26960FB6F894DEBF0FBE2F
:10130000CDBFDF91CF911F910F9108950F931F9340
:10131000CF93DF9300D000D000D0CDB7DEB78C01E3
:101320000E94B9056CEA72E0F801808191810E9407
:1013300043156EEB72E0CE0101960E944F1628EE27
:1013400033E040E050E0BE016F5F7F4FC8010E9474
:101350005208182FCE0101960E94E115812F269682
:101360000FB6F894DEBF0FBECDBFDF91CF911F91B6
:101370000F910895CF92DF92EF92FF92CF93DF9378
:10138000EC010E948609882349F160ED77E080E056
:1013900090E00E949D110E946E116B017C010E94E1
:1013A0006E116C197D098E099F09683B7B40810590
:1013B0009105A0F4CE010E945209882341F06CED02
:1013C00075E080E090E00E949D1181E008C064E635
:1013D00070E080E090E00E949D11E1CF80E0DF911D
:1013E000CF91FF90EF90DF90CF900895AF92BF9292
:1013F000CF92DF92EF92FF920F931F93CF93DF93E1
:10140000CDB7DEB762970FB6F894DEBF0FBECDBF83
:101410005C018B010E94B90563EB72E0F5018081EC
:1014200091810E9443156AEB72E0CE0101960E9401
:101430004F1661EC72E0CE0107960E944F166EEBDC
:1014400072E0CE010D960E944F1688EEC82E83E002
:10145000D82EE12CF12C9E012F5F3F4FAE01495F4A
:101460005F4FBE01635F7F4FC5010E94AE08182F1A
:10147000CE010D960E94E115CE0107960E94E1155E
:10148000CE0101960E94E115812F62960FB6F89465
:10149000DEBF0FBECDBFDF91CF911F910F91FF90A7
:1014A000EF90DF90CF90BF90AF9008950F931F9370
:1014B000CF93DF93EC018B0164EC72E00E944F1636
:1014C000BE01C8010E94F609CE01DF91CF911F91A4
:1014D0000F9108958F929F92AF92BF92CF92DF9219
:1014E000EF92FF920F931F93CF93DF93CDB7DEB7A9
:1014F00068970FB6F894DEBF0FBECDBF5C014B01FD
:1015000064EC72E0CE0143960E944F168114910460
:1015100011F410E048C0C5010E94B90565EC72E005
:10152000F501808191810E9443156AEB72E0CE0142
:1015300001960E944F1660ED72E0CE0107960E9460
:101540004F166EEB72E0CE010D960E944F1698EE8C
:10155000C92E93E0D92EE12CF12C8E010D5E1F4F88
:101560009E012F5F3F4FAE01495F5F4FBE01635F3A
:101570007F4FC5010E94AE08182FCE010D960E9424
:10158000E115CE0107960E94E115CE0101960E9459
:10159000E115112309F4BDCFCE0143960E94B61781
:1015A000F401608311E0CE0143960E94E115812F82
:1015B00068960FB6F894DEBF0FBECDBFDF91CF9116
:1015C0001F910F91FF90EF90DF90CF90BF90AF9061
:1015D0009F908F900895CF92DF92EF92FF920F939A
:1015E0001F93CF93DF93CDB7DEB768970FB6F8940C
:1015F000DEBF0FBECDBF6C01162F64EC72E0CE01D2
:1016000043960E944F16C6010E94B90569ED72E02B
:10161000F601808191810E9436154AE050E0612FE9
:10162000F601808191810E94B81564EE72E0CE01CE
:1016300007960E944F166EEB72E0CE010D960E9447
:101640004F1618EEE12E13E0F12E00E010E09E019F
:10165000295F3F4FAE01435F5F4FB601CE01019658
:101660000E94E907BE016F5F7F4FCE0143960E9443
:10167000BB16CE0101960E94E115CE010D960E9487
:10168000E115CE0107960E94E1156EEB72E0CE01E6
:1016900007960E944F16BE01695F7F4FCE014396A9
:1016A0000E946D170196B1F464EE72E0CE010196CE
:1016B0000E944F16BE016F5F7F4FCE0143960E947E
:1016C0006D1711E0019609F410E0CE0101960E9419
:1016D000E11501C011E0CE0107960E94E115CE018F
:1016E00043960E94E115812F68960FB6F894DEBFED
:1016F0000FBECDBFDF91CF911F910F91FF90EF9063
:10170000DF90CF900895FF920F931F93CF93DF93B5
:101710001F92CDB7DEB78C01BE016F5F7F4F0E9475
:101720006A0AF82E882379F08981833061F063E0BA
:10173000C8010E94EB0A882329F0C8010E94BA0957
:10174000811101C0F12C8F2D0F90DF91CF911F914E
:101750000F91FF900895CF92DF92EF92FF920F9337
:101760001F93CF93DF93CDB7DEB768970FB6F8948A
:10177000DEBF0FBECDBF6C018B017A0164EC72E05D
:10178000CE0143960E944F16C6010E94B9056EEE27
:1017900072E0F601808191810E943615B801F60150
:1017A000808191810E94281569EF72E0F6018081A5
:1017B00091810E943615B701F601808191810E94C6
:1017C00028156BEF72E0F601808191810E9443152C
:1017D0006DEF72E0CE0107960E944F166EEB72E03D
:1017E000CE010D960E944F1610E1E12E17E2F12E68
:1017F00000E010E09E01295F3F4FAE01435F5F4F65
:10180000B601CE0101960E94E907BE016F5F7F4FCE
:10181000CE0143960E94BB16CE0101960E94E115AF
:10182000CE010D960E94E115CE0107960E94E115AA
:101830006EEB72E0CE0101960E944F16BE016F5F03
:101840007F4FCE0143960E946D178C01CE01019609
:101850000E94E115CE0143960E94E11581E00F3F01
:101860001F4F09F480E068960FB6F894DEBF0FBEF4
:10187000CDBFDF91CF911F910F91FF90EF90DF903F
:10188000CF900895EF92FF920F931F93CF93DF9322
:10189000CDB7DEB72C970FB6F894DEBF0FBECDBF25
:1018A0008C017B01BA01CE0101960E94B216B701EC
:1018B000CE0107960E94B216AE014F5F5F4FBE0188
:1018C000695F7F4FC8010E94AB0B182FCE010796AE
:1018D0000E94E115CE0101960E94E115812F2C9600
:1018E0000FB6F894DEBF0FBECDBFDF91CF911F9131
:1018F0000F91FF90EF900895AF92BF92CF92DF9239
:10190000EF92FF920F931F93CF93DF93CDB7DEB784
:1019100068970FB6F894DEBF0FBECDBF5C018B0198
:1019200064EC72E0CE0143960E944F1664E670E0CC
:1019300080E090E00E949D11C5010E94B9056EE310
:1019400073E0F501808191810E9443156AEB72E09A
:10195000CE0101960E944F1661EC72E0CE0107960F
:101960000E944F166EEB72E0CE010D960E944F164C
:10197000E8EECE2EE3E0DE2EE12CF12C9E012F5F6F
:101980003F4FAE01495F5F4FBE01635F7F4FC501AF
:101990000E94AE08182FCE010D960E94E115CE01CF
:1019A00007960E94E115CE0101960E94E115CE0135
:1019B00043960E94E115812F68960FB6F894DEBF1A
:1019C0000FBECDBFDF91CF911F910F91FF90EF9090
:1019D000DF90CF90BF90AF9008950F931F93CF9358
:1019E000DF93EC018B0164EC72E00E944F16BE01A4
:1019F000C8010E947C0CCE01DF91CF911F910F9105
:101A000008954F925F926F927F928F929F92AF92C2
:101A1000BF92CF92DF92EF92FF920F931F93CF93DB
:101A2000DF9300D000D000D0CDB7DEB75C01D62E5A
:101A30007A01280139010E94B9056EE773E0D501EA
:101A40008D919C910E9436154AE050E06D2DF50174
:101A5000808191810E94B1156DE273E0D5018D9175
:101A60009C910E9436152AE030E0B301A201F501F5
:101A7000808191810E94CF156AE873E0CE010196C2
:101A80000E944F1628E833E140E050E0BE016F5F4E
:101A90007F4FC5010E945208D82ECE0101960E94A8
:101AA000E115DD20A9F1C5010E94B9054701C12C4E
:101AB000D12C7601C414D504E604F70499F0D501BD
:101AC0008D919C91F40161914F01DC01ED91FC91AC
:101AD0000190F081E02D0995BFEFCB1ADB0AEB0AEC
:101AE000FB0AE8CF6CE873E0CE0101960E944F1626
:101AF00020E137E240E050E0BE016F5F7F4FC5015B
:101B00000E945208F82ECE0101960E94E11501C0F4
:101B1000F12C8F2D26960FB6F894DEBF0FBECDBFE9
:101B2000DF91CF911F910F91FF90EF90DF90CF90B9
:101B3000BF90AF909F908F907F906F905F904F90ED
:101B400008950F931F930E94010D1F910F91089507
:101B5000AF92BF92CF92DF92EF92FF920F931F93BB
:101B6000CF93DF93CDB7DEB762970FB6F894DEBFA1
:101B70000FBECDBF5C018B010E94B90569EB73E01C
:101B8000F501808191810E9443156AEB72E0CE01DC
:101B900001960E944F1661EC72E0CE0107960E94FA
:101BA0004F166EEB72E0CE010D960E944F1688EE36
:101BB000C82E83E0D82EE12CF12C9E012F5F3F4FE1
:101BC000AE01495F5F4FBE01635F7F4FC5010E9459
:101BD000AE08182FCE010D960E94E115CE01079692
:101BE0000E94E115CE0101960E94E115812F6296B7
:101BF0000FB6F894DEBF0FBECDBFDF91CF911F911E
:101C00000F91FF90EF90DF90CF90BF90AF9008952D
:101C10000F931F93CF93DF93EC018B0164EC72E081
:101C20000E944F16BE01C8010E94A80DCE01DF918F
:101C3000CF911F910F910895CF92DF92EF92FF9273
:101C40000F931F93CF93DF93CDB7DEB768970FB68F
:101C5000F894DEBF0FBECDBF6C01162F64EC72E0AE
:101C6000CE0143960E944F16C6010E94B90562EC50
:101C700073E0F601808191810E9436154AE050E0C0
:101C8000612FF601808191810E94B8156DEC73E09F
:101C9000CE0107960E944F166EEB72E0CE010D96B4
:101CA0000E944F1618EEE12E13E0F12E00E010E036
:101CB0009E01295F3F4FAE01435F5F4FB601CE01EA
:101CC00001960E94E907BE016F5F7F4FCE014396E8
:101CD0000E94BB16CE0101960E94E115CE010D9621
:101CE0000E94E115CE0107960E94E1156EEB72E0AD
:101CF000CE0101960E944F16BE016F5F7F4FCE014D
:101D000043960E946D176C01CE0101960E94E11569
:101D1000CE0143960E94E11581E0CD20C09409F4E4
:101D200080E068960FB6F894DEBF0FBECDBFDF919E
:101D3000CF911F910F91FF90EF90DF90CF9008957A
:101D400061E00C941C0EAF92BF92CF92DF92EF92A3
:101D5000FF920F931F93CF93DF93CDB7DEB76897B2
:101D60000FB6F894DEBF0FBECDBF5C01162F690120
:101D70007A0164EC72E0CE0143960E944F16C501D1
:101D8000112309F46EC00E94B9056DED73E0F501F1
:101D9000808191810E9436152AE030E0B701A601CA
:101DA000F501808191810E94CF1564EE72E0CE0131
:101DB00007960E944F166EEB72E0CE010D960E94C0
:101DC0004F1618EEE12E13E0F12E00E010E09E0118
:101DD000295F3F4FAE01435F5F4FB501CE010196D2
:101DE0000E94E907BE016F5F7F4FCE0143960E94BC
:101DF000BB16CE0101960E94E115CE010D960E9400
:101E0000E115CE0107960E94E1156EEB72E0CE015E
:101E100007960E944F16BE01695F7F4FCE01439621
:101E20000E946D170196B1F464EE72E0CE01019646
:101E30000E944F16BE016F5F7F4FCE0143960E94F6
:101E40006D1711E0019609F410E0CE0101960E9491
:101E5000E11501C011E0CE0107960E94E115F12EB7
:101E60001EC00E94B9056DEE73E0F501808191817D
:101E70000E94431561EC72E0CE0101960E944F165C
:101E800028EE33E040E050E0BE016F5F7F4FC501B8
:101E90000E945208F82ECE0101960E94E115CE0153
:101EA00043960E94E1158F2D68960FB6F894DEBF19
:101EB0000FBECDBFDF91CF911F910F91FF90EF909B
:101EC000DF90CF90BF90AF9008959A01AB0161E091
:101ED0000C94A30E0F931F93CF93DF93EC01662313
:101EE00059F00E946E1169837A838B839C83DF9102
:101EF000CF911F910F9108950E946E1109811A814F
:101F00002B813C81601B710B820B930B6436710536
:101F10008105910530F763E070E080E090E00E9479
:101F20009D11EACF60E00C946A0FFC0113AA14AA79
:101F300015AA16AA11821282138214824115510524
:101F40006105710521F0CB01BA010C949D11089532
:101F5000FB01BA01A901DC01D296FC93EE93D19763
:101F600026E0CF010C94D3131F93CF93DF93EC01A2
:101F7000162F67E074E089A99AA90E9436154AE0F5
:101F800050E0612F89A99AA90E94B1156EE074E012
:101F900089A99AA90E94361562E370E080E090E07A
:101FA000DF91CF911F910C949D111F93CF93DF93DD
:101FB000EC01162F8D81882389F189A99AA9DC016A
:101FC000ED91FC910480F581E02D0995892BA9F311
:101FD00007C02637310519F12835310509F41D826E
:101FE00089A99AA9DC01ED91FC910480F581E02D8D
:101FF00009951816190694F489A99AA9DC01ED919E
:10200000FC910680F781E02D09959C01332723364A
:102010003105F9F6612FCE010E94B40F83E6DF91FE
:10202000CF911F9108950F931F93CF93DF931F922A
:10203000CDB7DEB78C01662349F081E0F8018583D6
:1020400060E0C80149830E94D50F4981F8014583AA
:102050000F90DF91CF911F910F910895CF92DF9252
:10206000EF92FF920F931F936B017C01CA01B9019C
:10207000C114D104E104F10421F4C12CD12C760166
:10208000C394C092C205D092C305E092C405F092F9
:10209000C5051093C1050093C005209170002E7FE7
:1020A000209370002091B0002C7F2093B0002091ED
:1020B000B100277F2093B1002091B6002F7D20939F
:1020C000B600209170002D7F209370002091B10008
:1020D00024602093B1002091B1002C7F2093B100A7
:1020E00020E034E244E75BE40E94441820E030E062
:1020F00040E85CE30E9444180E94C21720E031E0EF
:10210000261B370B3093BA052093B9051F910F9109
:10211000FF90EF90DF90CF9008950F931F938A0167
:102120002FE632E143E85AE30E942E101F910F91EF
:1021300008951092BC051092BD051092BE05109234
:10214000BF051092BB058091B9059091BA058093A7
:10215000B200E0E7F0E080818160808308958091A3
:10216000BC059091BD05A091BE05B091BF0501963B
:10217000A11DB11D8093BC059093BD05A093BE0524
:10218000B093BF058091BC059091BD05A091BE059F
:10219000B091BF054091C2055091C3056091C4053F
:1021A0007091C50584179507A607B70710F18091B0
:1021B000BB0581111EC081E08093BB058091BC05E9
:1021C0009091BD05A091BE05B091BF05841B950BF4
:1021D000A60BB70B8093BC059093BD05A093BE05DD
:1021E000B093BF05E091C005F091C105099510922B
:1021F000BB0508951F920F920FB60F9211242F93D3
:102200003F934F935F936F937F938F939F93AF937E
:10221000BF93EF93FF938091B9059091BA05809396
:10222000B2000E94AF10FF91EF91BF91AF919F91CB
:102230008F917F916F915F914F913F912F910F906F
:102240000FBE0F901F9018951F920F920FB60F920E
:1022500011242F933F938F939F93AF93BF938091BC
:10226000C7059091C805A091C905B091CA053091E4
:10227000C60523E0230F2D3720F40196A11DB11DC3
:1022800005C026E8230F0296A11DB11D2093C605A7
:102290008093C7059093C805A093C905B093CA055C
:1022A0008091CB059091CC05A091CD05B091CE0544
:1022B0000196A11DB11D8093CB059093CC05A093F1
:1022C000CD05B093CE05BF91AF919F918F913F9176
:1022D0002F910F900FBE0F901F9018952FB7F89465
:1022E0006091C7057091C8058091C9059091CA0594
:1022F0002FBF08953FB7F8948091CB059091CC05FE
:10230000A091CD05B091CE0526B5A89B05C02F3F65
:1023100019F00196A11DB11D3FBF6627782F892FA7
:102320009A2F620F711D811D911D42E0660F771F6C
:10233000881F991F4A95D1F708958F929F92AF9267
:10234000BF92CF92DF92EF92FF926B017C010E94CD
:102350007A114B015C01C114D104E104F104F1F0E4
:102360000E94C1170E947A11681979098A099B098C
:10237000683E73408105910570F321E0C21AD108CF
:10238000E108F10888EE880E83E0981EA11CB11CBC
:10239000C114D104E104F10429F7DDCFFF90EF90DF
:1023A000DF90CF90BF90AF909F908F9008957894DA
:1023B00084B5826084BD84B5816084BD85B582604A
:1023C00085BD85B5816085BDEEE6F0E080818160E8
:1023D0008083E1E8F0E010828081826080838081E8
:1023E00081608083E0E8F0E0808181608083E1EBC0
:1023F000F0E0808184608083E0EBF0E080818160A8
:102400008083EAE7F0E0808184608083808182605D
:102410008083808181608083808180688083109246
:10242000C10008958E3008F08E508770209106010B
:1024300090E4299F90011124822B80937C0080914D
:102440007A00806480937A0080917A0086FDFCCFC8
:10245000809178002091790090E0922B089583304C
:1024600081F028F4813099F08230A1F0089587300E
:10247000A9F08830B9F08430D1F4809180008F7D4C
:1024800003C0809180008F7780938000089584B589
:102490008F7702C084B58F7D84BD08958091B00090
:1024A0008F7703C08091B0008F7D8093B000089536
:1024B000CF93DF9390E0FC01E458FF4F2491FC019F
:1024C000E057FF4F8491882349F190E0880F991FCE
:1024D000FC01E854FF4FA591B49182559F4FFC0138
:1024E000C591D4919FB7611108C0F8948C91209543
:1024F00082238C93888182230AC0623051F4F8943D
:102500008C91322F309583238C938881822B888302
:1025100004C0F8948C91822B8C939FBFDF91CF9154
:1025200008950F931F93CF93DF931F92CDB7DEB71C
:10253000282F30E0F901E859FF4F8491F901E45860
:10254000FF4F1491F901E057FF4F04910023C9F0A8
:10255000882321F069830E942F126981E02FF0E027
:10256000EE0FFF1FE255FF4FA591B4919FB7F8946E
:102570008C91611103C01095812301C0812B8C9334
:102580009FBF0F90DF91CF911F910F910895CF932F
:10259000DF93282F30E0F901E859FF4F8491F901CA
:1025A000E458FF4FD491F901E057FF4FC491CC2379
:1025B00091F081110E942F12EC2FF0E0EE0FFF1F1F
:1025C000EC55FF4FA591B4912C912D2381E090E023
:1025D00021F480E002C080E090E0DF91CF91089587
:1025E000FC01818D228D90E0805C9F4F821B9109C0
:1025F0008F7399270895FC01918D828D981731F082
:10260000828DE80FF11D858D90E008958FEF9FEF8B
:102610000895FC01918D828D981761F0828DDF0104
:10262000A80FB11D5D968C91928D9F5F9F73928FC5
:1026300090E008958FEF9FEF08958DE894E1892B46
:1026400049F080E090E0892B29F00E948D148111DF
:102650000C9400000895FC01848DDF01A80FB11DCA
:10266000A35ABF4F2C91848D90E001968F739927C8
:10267000848FA689B7892C93A089B1898C918064B5
:102680008C93938D848D981306C00288F389E02D76
:1026900080818F7D80830895CF93DF93EC01888DB7
:1026A0008823C9F0EA89FB89808185FD05C0A88956
:1026B000B9898C9186FD0FC00FB607FCF5CF8081DC
:1026C00085FFF2CFA889B9898C9185FFEDCFCE0126
:1026D0000E942B13E7CFDF91CF910895CF92DF9225
:1026E000FF920F931F93CF93DF931F92CDB7DEB767
:1026F0006C0181E0D60158968C9358975B969C911B
:102700005B975C968C915C97981307C05096ED91FF
:10271000FC915197808185FD2EC0F601038D10E05C
:102720000F5F1F4F0F731127F02EF601848DF812E3
:1027300011C00FB607FCF9CFD6015096ED91FC9170
:102740005197808185FFF1CFC60169830E942B13C9
:102750006981EBCF838DE80FF11DE35AFF4F608352
:10276000D6015B960C935B975296ED91FC91539733
:10277000808180620CC0D6015696ED91FC915797EE
:1027800060835096ED91FC915197808180648083A5
:1027900081E090E00F90DF91CF911F910F91FF901A
:1027A000DF90CF900895BF92CF92DF92EF92FF9289
:1027B000CF93DF93EC016A017B01B22EE889F9899E
:1027C00082E08083411581EE580761057105A1F013
:1027D00060E079E08DE390E0A70196010E94BB18CC
:1027E000215031094109510956954795379527954B
:1027F000211580E1380798F0E889F989108260E8AE
:1028000074E88EE190E0A70196010E94BB18215068
:102810003109410951095695479537952795EC851A
:10282000FD853083EE85FF852083188EEC89FD8938
:10283000B082EA89FB89808180618083EA89FB8993
:10284000808188608083EA89FB89808180688083B9
:10285000EA89FB8980818F7D8083DF91CF91FF9012
:10286000EF90DF90CF90BF9008951F920F920FB618
:102870000F9211242F938F939F93EF93FF93E091E7
:10288000DF05F091E0058081E091E505F091E60536
:1028900082FD12C090818091E8058F5F8F73209137
:1028A000E905821751F0E091E805F0E0E153FA4FB5
:1028B000958F8093E80501C08081FF91EF919F91F2
:1028C0008F912F910F900FBE0F901F9018951F9210
:1028D0000F920FB60F9211242F933F934F935F9354
:1028E0006F937F938F939F93AF93BF93EF93FF93D8
:1028F0008FEC95E00E942B13FF91EF91BF91AF9168
:102900009F918F917F916F915F914F913F912F9107
:102910000F900FBE0F901F9018958FEC95E00E94BE
:10292000F01221E0892B09F420E0822F0895109203
:10293000D2051092D10588EE93E0A0E0B0E080933C
:10294000D3059093D405A093D505B093D60583E61F
:1029500094E09093D0058093CF0585EC90E0909320
:10296000DC058093DB0584EC90E09093DE0580939A
:10297000DD0580EC90E09093E0058093DF0581EC2D
:1029800090E09093E2058093E10582EC90E09093D3
:10299000E4058093E30586EC90E09093E605809350
:1029A000E5051092E8051092E9051092EA051092EB
:1029B000EB05089508950E94D7110E94DA140E9431
:1029C0001901CDE1D3E10E9450022097E1F30E946A
:1029D0001D13F9CFCF92DF92EF92FF920F931F93C7
:1029E000CF93DF937C016A01EB0100E010E00C154E
:1029F0001D0571F06991D701ED91FC910190F08175
:102A0000E02DC7010995892B19F00F5F1F4FEFCFFC
:102A1000C801DF91CF911F910F91FF90EF90DF9050
:102A2000CF9008956115710581F0DB010D900020B4
:102A3000E9F7AD0141505109461B570BDC01ED91FF
:102A4000FC910280F381E02D099480E090E00895EC
:102A5000DC01ED91FC91DB0114964D915C91159791
:102A60006D917C910280F381E02D09940C941215F4
:102A7000DC01ED91FC910190F081E02D099462EC74
:102A800072E00C9412150F931F93CF93DF93EC0118
:102A90000E9412158C01CE010E943F15800F911FDC
:102AA000DF91CF911F910F9108958F929F92AF92D6
:102AB000BF92DF92EF92FF920F931F93CF93DF931A
:102AC000CDB7DEB7A1970FB6F894DEBF0FBECDBF6E
:102AD0007C01F42FD52ECB0119A2223008F42AE074
:102AE0008E010F5D1F4F822E912CA12CB12C6F2FC8
:102AF0007D2DA50194010E94BB18F22FD32ECA018F
:102B0000015011096A3014F4E0E301C0E7E3E60F75
:102B1000D801EC93232B242B252B49F7B801C701AF
:102B20000E941215A1960FB6F894DEBF0FBECDBF5E
:102B3000DF91CF911F910F91FF90EF90DF90BF90A9
:102B4000AF909F908F9008952115310541F4DC01DD
:102B5000ED91FC910190F081E02D642F09940C948B
:102B600055159A01462F50E060E070E00C94A415D2
:102B70000F931F93CF93DF93EC019A01462F50E000
:102B800060E070E00E94A4158C01CE010E943F1508
:102B9000800F911FDF91CF911F910F9108950F9397
:102BA0001F93CF93DF93EC010E94A4158C01CE01FB
:102BB0000E943F15800F911FDF91CF911F910F91C0
:102BC0000895FC01808191810C94AE19CF93DF931D
:102BD000EC0188819981009711F00E94AE19198249
:102BE00018821D821C821B821A82DF91CF91089568
:102BF0000F931F93CF93DF93EC018B016F5F7F4F98
:102C0000888199810E943D1A009731F099838883C9
:102C10001B830A8381E001C080E0DF91CF911F9187
:102C20000F910895CF93DF93EC0188819981892BCF
:102C300029F08A819B818617970760F4CE010E9454
:102C4000F815882341F08C819D81892B19F4E88146
:102C5000F981108281E0DF91CF910895EF92FF9288
:102C60000F931F93CF93DF93EC017B018A01BA018D
:102C70000E941216811104C0CE010E94E61507C001
:102C80001D830C83B701888199810E94421BCE016C
:102C9000DF91CF911F910F91FF90EF900895FC016C
:102CA00011821082138212821582148261157105BD
:102CB00059F0FB0101900020E9F7AF0141505109A3
:102CC000461B570B0C942E1608950F931F93CF930A
:102CD000DF938C01EB01FC0180819181009799F0D9
:102CE000428153812C813D814217530750F0688106
:102CF00079810E94421B8C819D81F8019583848398
:102D000013C00E94AE1988819981F8019183808354
:102D10008A819B81938382838C819D819583848327
:102D2000198218821B821A821D821C82DF91CF9128
:102D30001F910F910895CF93DF93EC01FB0186174C
:102D4000970761F0608171816115710529F04481F7
:102D500055810E942E1602C00E94E615CE01DF9119
:102D6000CF910895FC011182108213821282158284
:102D700014820C949B16CF93DF93EC018617970770
:102D800011F00E946516CE01DF91CF910895CF9387
:102D9000DF93EC016115710561F0FB0101900020EA
:102DA000E9F7AF0141505109461B570B0E942E16FF
:102DB00002C00E94E615CE01DF91CF910895EF92F7
:102DC000FF920F931F93CF93DF93EC017B010C8154
:102DD0001D816115710511F480E016C04115510582
:102DE00091F0040F151FB8010E9412168823A1F359
:102DF000288139818C819D81B701820F931F0E94A8
:102E0000421B1D830C8381E0DF91CF911F910F91B5
:102E1000FF90EF900895CF93DF9300D0CDB7DEB74A
:102E200069831A8241E050E0BE016F5F7F4F0E94CC
:102E3000DF160F900F90DF91CF910895FC01248150
:102E400035816217730748F480819181009729F0DA
:102E5000FC01E60FF71F8081089580E008950C942F
:102E60001E17CF93DF93FC01848195814817590782
:102E700078F4C081D181772767FD7095CE01840FEA
:102E8000951F0E94371B009719F08C1B9D0B02C0E9
:102E90008FEF9FEFDF91CF91089540E050E00C94C9
:102EA0003117CF93DF93FC0184819581481759072F
:102EB00078F4C081D181FB0160817181CE01840FE2
:102EC000951F0E94491B009719F08C1B9D0B02C097
:102ED0008FEF9FEFDF91CF91089540E050E00C9489
:102EE0005117BF92CF92DF92EF92FF920F931F93F1
:102EF000CF93DF936C017B01EA0189012417350729
:102F000020F48D2FE901042F182F64EC72E0C60124
:102F10000E944F16D70114968D919C911597C81752
:102F2000D907C8F48017910708F48C01D701ED91F7
:102F3000FC911197E00FF11FB08010826D917C9190
:102F40006C0F7D1FC6010E94C716D701ED91FC9141
:102F5000E00FF11FB082C601DF91CF911F910F9159
:102F6000FF90EF90DF90CF90BF900895FC0180819B
:102F70009181009711F00C94071B60E070E0CB0189
:102F80000895089504D06894B11178C008955BD075
:102F900088F09F5790F0B92F9927B751A0F0D1F042
:102FA000660F771F881F991F1AF0BA95C9F712C0CC
:102FB000B13081F062D0B1E008955FC0672F782F03
:102FC0008827B85F39F0B93FCCF386957795679538
:102FD000B395D9F73EF490958095709561957F4FA4
:102FE0008F4F9F4F089597F99F6780E870E060E0EA
:102FF00008959FEF80EC089500240A941616170692
:1030000018060906089500240A94121613061406D9
:1030100005060895092E0394000C11F4882352F03C
:10302000BB0F40F4BF2B11F460FF04C06F5F7F4FF4
:103030008F4F9F4F089557FD9058440F551F59F0DB
:103040005F3F71F04795880F97FB991F61F09F3F95
:1030500079F087950895121613061406551FF2CFBE
:103060004695F1DF08C0161617061806991FF1CF0E
:1030700086957105610508940895E894BB27662735
:103080007727CB0197F908950BD0C4CFB5DF28F08F
:10309000BADF18F0952309F0A6CFABCF1124EECFFD
:1030A000CADFA0F3959FD1F3950F50E0551F629FA3
:1030B000F001729FBB27F00DB11D639FAA27F00D91
:1030C000B11DAA1F649F6627B00DA11D661F829FB8
:1030D0002227B00DA11D621F739FB00DA11D621F9D
:1030E000839FA00D611D221F749F3327A00D611DBA
:1030F000231F849F600D211D822F762F6A2F11249C
:103100009F5750408AF0E1F088234AF0EE0FFF1FEE
:10311000BB1F661F771F881F91505040A9F79E3F25
:10312000510570F060CFAACF5F3FECF3983EDCF31F
:10313000869577956795B795F795E7959F5FC1F762
:10314000FE2B880F911D9695879597F9089597FB0B
:10315000072E16F4009407D077FD09D00E94FC18C2
:1031600007FC05D03EF4909581959F4F089570958A
:1031700061957F4F0895A1E21A2EAA1BBB1BFD018A
:103180000DC0AA1FBB1FEE1FFF1FA217B307E40746
:10319000F50720F0A21BB30BE40BF50B661F771F9E
:1031A000881F991F1A9469F760957095809590957E
:1031B0009B01AC01BD01CF010895052E97FB1EF4C4
:1031C00000940E94F41857FD07D00E94BB1807FC1A
:1031D00003D04EF40C94F4185095409530952195F9
:1031E0003F4F4F4F5F4F0895909580957095619533
:1031F0007F4F8F4F9F4F0895AA1BBB1B51E107C004
:10320000AA1FBB1FA617B70710F0A61BB70B881F76
:10321000991F5A95A9F780959095BC01CD01089505
:10322000EE0FFF1F0590F491E02D0994CF93DF93EB
:103230008230910510F482E090E0E0916E06F0910A
:103240006F0620E030E0A0E0B0E0309739F1408137
:10325000518148175907B8F04817590771F482810E
:103260009381109729F013969C938E9312972CC0FC
:1032700090936F0680936E0627C02115310531F0BB
:103280004217530718F0A901DB0101C0EF019A01B1
:10329000BD01DF010280F381E02DD7CF211531057B
:1032A000F9F0281B390B2430310580F48A819B8189
:1032B0006115710521F0FB019383828304C0909313
:1032C0006F0680936E06FE01329644C0FE01E20F47
:1032D000F31F8193919322503109398328833AC097
:1032E00020916C0630916D06232B41F42091020150
:1032F0003091030130936D0620936C0620910001FC
:10330000309101012115310541F42DB73EB74091AF
:10331000040150910501241B350BE0916C06F091DE
:103320006D06E217F307A0F42E1B3F0B2817390791
:1033300078F0AC014E5F5F4F2417350748F04E0F11
:103340005F1F50936D0640936C068193919302C06A
:10335000E0E0F0E0CF01DF91CF910895CF93DF93CC
:10336000009709F487C0FC01329713821282C09142
:103370006E06D0916F06209781F420813181280F4D
:10338000391F80916C0690916D068217930779F52D
:10339000F0936D06E0936C066DC0DE0120E030E036
:1033A000AE17BF0750F412964D915C9113979D0193
:1033B0004115510509F1DA01F3CFB383A2834081AE
:1033C0005181840F951F8A179B0771F48D919C91F1
:1033D0001197840F951F02969183808312968D9189
:1033E0009C911397938382832115310529F4F093DF
:1033F0006F06E0936E063EC0D9011396FC93EE93E0
:1034000012974D915D91A40FB51FEA17FB0779F450
:1034100080819181840F951F0296D90111969C930A
:103420008E938281938113969C938E931297E0E002
:10343000F0E08A819B81009719F0FE01EC01F9CF41
:10344000CE01029628813981820F931F20916C064C
:1034500030916D062817390769F4309729F41092D6
:103460006F0610926E0602C013821282D0936D0610
:10347000C0936C06DF91CF910895A0E0B0E0E3E443
:10348000FAE10C947C1BEC01CB01209719F40E940B
:103490001619B8C0FE01E60FF71F9E012250310930
:1034A000E217F30708F4ACC0D9010D911C911197F4
:1034B00006171707B8F00530110508F49FC0A801DA
:1034C000445051094617570708F498C00250110993
:1034D000061B170B019311936D937C93CF010E94F0
:1034E000AE198CC05B01A01AB10A4E01800E911E6C
:1034F000A0916E06B0916F06612C712C60E070E0B7
:10350000109709F449C0A815B905C9F5ED90FC90CC
:103510001197670142E0C40ED11CCA14DB0478F194
:1035200047018A189B08640142E0C40ED11C129620
:10353000BC9012971396AC91B5E0CB16D10440F035
:10354000B282A38391828082D9018D939C9309C01A
:103550000E5F1F4F0E0D1F1DF90111830083EB2D10
:10356000FA2F6115710531F0DB011396FC93EE9390
:10357000129744C0F0936F06E0936E063FC06D91C2
:103580007C9111976616770608F43B01BD011296EF
:103590000D90BC91A02DB4CF60916C0670916D061A
:1035A00068157905E9F468167906D0F440910001B0
:1035B000509101014115510541F44DB75EB760913D
:1035C000040170910501461B570BE417F507C0F481
:1035D000F0936D06E0936C06F901918380830EC031
:1035E0000E9416197C01009759F0A801BE010E94A3
:1035F0002E1BCE010E94AE19C70104C0CE0102C02D
:1036000080E090E0CDB7DEB7EEE00C94981B1F93FE
:10361000FC0199278827BC01E89411911032E9F345
:10362000193010F01E30C8F31B3251F01D3249F42E
:10363000689406C00E94631B610F711D811D911D5E
:10364000119110531A30B0F33EF490958095709517
:1036500061957F4F8F4F9F4F1F910895FB01DC01B4
:1036600002C001900D9241505040D8F70895FC01DE
:103670008191861721F08823D9F7992708953197EA
:10368000CF010895FB01DC0101900D920020E1F7CC
:103690000895FB0151915523A9F0BF01DC014D9123
:1036A00045174111E1F759F4CD010190002049F08F
:1036B0004D9140154111C9F3FB014111EFCF81E05C
:1036C00090E001970895592F482F372F262F660F26
:1036D000771F881F991F660F771F881F991F620F1A
:1036E000731F841F951F660F771F881F991F0895EA
:1036F0002F923F924F925F926F927F928F929F9202
:10370000AF92BF92CF92DF92EF92FF920F931F93EF
:10371000CF93DF93CDB7DEB7CA1BDB0B0FB6F894A0
:10372000DEBF0FBECDBF09942A88398848885F84E0
:103730006E847D848C849B84AA84B984C884DF8051
:10374000EE80FD800C811B81AA81B981CE0FD11D35
:103750000FB6F894DEBF0FBECDBFED01089510E0A7
:10376000C6ECD0E004C0FE010E9412192296C83CAB
:08377000D107C9F7F894FFCF5F
:1037780000007006800001564D4450565F317C3180
:103788005F564D4450560D0A00496E696369616E73
:10379800646F20536574757020342E0056657273FB
:1037A800616F206465204669726D77617265204596
:1037B8005350383236363A200053746174696F6E4C
:1037C8002065204150204F4B2E004572726F2065B6
:1037D8006D2073657461722053746174696F6E2013
:1037E800652041502E00323830366C6873733130A2
:1037F80030387270626E0057692D4669204C485205
:103808005000436F6E65637461646F20636F6D2051
:103818005375636573736F2E0049503A20004661F3
:103828006C6861206E6120636F6E6578616F2041FE
:10383800502E00436F6E6578616F206D7578204F4C
:103848004B2E004572726F20616F20736574617230
:10385800206D757820636F6E6E656374696F6E2E68
:10386800005365727669646F7220696E6963696175
:10387800646F20636F6D207375636573736F2E00BB
:103888004572726F20616F20696E69636961722089
:103898007365727669646F722E0053746174757300
:1038A8003A5B005D0053657475702066696E616CE3
:1038B800697A61646F2100436F6E65637461646F38
:1038C80000526563656269646F206465203A005D33
:1038D8000D0A00456E766961646F20646520766F15
:1038E8006C74612E2E2E0D0A004572726F20616F66
:1038F80020656E7669617220646520766F6C7461EC
:103908000D0A00000000006603EA14D1034503B95C
:1039180003B8032B4950442C0041540041542B5206
:1039280053540041542B474D52000D0A0D0A4F4B7A
:10393800000D0D0A0041542B43574D4F44453F009D
:103948002B43574D4F44453A0041542B43574D4F55
:1039580044453D006E6F206368616E6765004154A1
:103968002B43574A41503D2200222C220046414910
:103978004C00310041542B4357444843503D0041CB
:10398800542B43574C41500041542B4357514150FD
:103998000041542B43575341503D2200222C0045EF
:1039A80052524F520041542B43574C494600415400
:1039B8002B4349505354415455530041542B4349C8
:1039C8005053544152543D2200414C5245414459B0
:1039D80020434F4E4E4543540054435000554450E5
:1039E8000041542B43495053544152543D004154D3
:1039F8002B43495053454E443D003E0053454E44E9
:103A0800204F4B0041542B434950434C4F53453DA5
:103A1800006C696E6B206973206E6F740041542BC3
:103A2800434950434C4F53450041542B4349465357
:103A3800520041542B4349504D55583D004C696E36
:103A48006B206973206275696C6465640041542B4E
:103A58004349505345525645523D312C0041542B51
:103A68004349505345525645523D300041542B432B
:103A7800495053544F3D00564D4450435F005F56E4
:103A88004D4450430D0A004572726F723A204174DA
:103A980074656D707420746F207365742061207272
:103AA8006561642D6F6E6C79207661726961626CF4
:103AB80065206F7220646174612074797065206E6E
:103AC8006F7420737570706F727465640D0A0000EE
:103AD8000000006E13EA14F0120913FB124C136E67
:0C3AE800616E00696E66006F766600007B
:00000001FF
